:020000040800F2
:1000000000000120092800084527000847270008AC
:10001000492700084B2700084D2700080000000072
:100020000000000000000000000000004F27000852
:10003000512700080000000053270008552700083A
:10004000592800085928000859280008592800088C
:10005000592800085928000859280008592800087C
:10006000592800085928000859280008592800086C
:10007000592800085928000859280008592700085D
:10008000592800085928000859280008592800084C
:10009000592800085928000859280008592800083C
:1000A000592800085928000859280008592800082C
:1000B000592800080000000000000000592800082E
:1000C000592800080000000000000000592800081E
:1000D000000000005928000859280008000000000E
:1000E00059280008592800080000000000000000FE
:1000F0000000000000000000000000000000000000
:100100000000000000000000000000005928000866
:1001100000000000000000005928000859280008CD
:1001200059280008592800085928000859280008AB
:100130005928000800000000000000000000000036
:10014000592800085928000859280008592800088B
:10015000592800085928000859280008592800087B
:1001600059280008592800085928000800000000F4
:10017000592800085928000800000000000000006D
:0C018000592800085928000859280008D8
:1001900010B5054C237833B9044B13B10448AFF3C1
:1001A00000800123237010BD6800002000000000C3
:1001B0009837000808B5034B1BB103490348AFF358
:1001C000008008BD000000006C0000209837000887
:1001D00001F0FF01102A2BDB10F0070F08D010F8F8
:1001E000013B013A8B422DD010F0070F42B3F6D1FC
:1001F000F0B441EA012141EA014122F007047FF015
:1002000000070023F0E80256083C85EA010586EA6B
:10021000010685FA47F5A3FA87F586FA47F6A5FAA7
:1002200087F68EB9EED1F0BC01F0FF0102F00702B3
:1002300032B110F8013B013A83EA010313B1F8D15E
:100240000020704701387047002D06BF354603383F
:10025000073815F0010F07D1013015F4807F02BF78
:10026000013015F4C03F0130F0BC0138704700BFC9
:1002700053B94AB9002908BF00281CBF4FF0FF310D
:100280004FF0FF3000F07AB9ADF1080C6DE904CE03
:1002900000F006F8DDF804E0DDE9022304B0704761
:1002A0002DE9F0478C460D460446089E002B51D19F
:1002B0008A4217466DD9B2FA82FEBEF1000F0BD00A
:1002C000CEF1200C01FA0EF520FA0CFC02FA0EF722
:1002D0004CEA050C00FA0EF44FEA174A250CBCFB59
:1002E000FAF81FFA87F90AFB18CC45EA0C4508FB17
:1002F00009F3AB420AD9ED1908F1FF3280F02381EE
:10030000AB4240F22081A8F102083D44ED1AA4B2AC
:10031000B5FBFAF00AFB105544EA054400FB09F965
:10032000A14509D9E41900F1FF3380F00A81A14504
:1003300040F2078102383C44A4EB090440EA08403B
:100340000021002E61D024FA0EF400233460736083
:10035000BDE8F0878B4207D9002E54D0002186E8F3
:1003600021000846BDE8F087B3FA83F1002940F088
:100370008E80AB4202D3824200F2FA80841A65EB8F
:1003800003050120AC46002E3FD086E81010BDE8E2
:10039000F08712B90127B7FBF2F7B7FA87FEBEF173
:1003A000000F34D1EB1B3A0C1FFA87FC0121B3FB81
:1003B000F2F8250C02FB183345EA03450CFB08F361
:1003C000AB4207D9ED1908F1FF3002D2AB4200F27F
:1003D000D1808046ED1AA3B2B5FBF2F002FB1055B6
:1003E00043EA05440CFB00FCA44507D9E41900F1DD
:1003F000FF3302D2A44500F2B8801846A4EB0C04E7
:1004000040EA08409DE731463046BDE8F087CEF12E
:10041000200405FA0EF307FA0EF720FA04F83A0C56
:1004200025FA04F448EA0308B4FBF2F14FEA184550
:1004300002FB11441FFA87FC45EA044501FB0CF35B
:10044000AB4200FA0EF409D9ED1901F1FF3080F04A
:100450008A80AB4240F2878002393D44EB1A1FFA92
:1004600088F5B3FBF2F002FB103345EA034500FBCD
:100470000CF3AB4207D9ED1900F1FF386FD2AB4254
:100480006DD902383D44EB1A40EA01418FE7C1F1D2
:10049000200722FA07F88B4005FA01F448EA030323
:1004A00020FA07FE4FEA134CFD404EEA040EB5FB5E
:1004B000FCF94FEA1E440CFB19551FFA83F844EA75
:1004C000054509FB08F4AC4202FA01F200FA01FA10
:1004D00008D9ED1809F1FF3043D2AC4241D9A9F156
:1004E00002091D442D1B1FFA8EFEB5FBFCF00CFB10
:1004F00010554EEA054400FB08F8A04507D9E4185A
:1005000000F1FF3529D2A04527D902381C4440EA22
:100510000940A4EB0804A0FB02894C45C6464D46A1
:1005200015D312D056B1BAEB0E0364EB050404FAEE
:1005300007F7CB401F43CC40376074600021BDE813
:10054000F0871846F8E69046E0E6C245EAD2B8EBF6
:10055000020E69EB03050138E4E72846D7E7404679
:1005600091E78146BEE7014678E702383C4445E71B
:10057000084608E7A8F102083D442BE7704700BF92
:1005800038B50A4B054618684FF47A73B0FBF3F0A0
:1005900000F08CF8044638B9024629464FF0FF3087
:1005A00000F044F8204638BD012038BD000000208E
:1005B00010B5032000F028F80020FFF7E1FF044603
:1005C00018B901F0CBFF204610BD0124FBE7000065
:1005D000024A136801331360704700BF9400002083
:1005E000014B1868704700BF9400002038B50446DE
:1005F000FFF7F6FF631C054618BF0134FFF7F0FF55
:10060000401B8442FAD838BD074AD36823F4E0631C
:100610001B041B0C43F0BF63000243F4003300F4DF
:10062000E0600343D360704700ED00E0174B30B546
:10063000DC68C4F30224C4F10703251D042B28BF82
:100640000423062D4FF0010505FA03F303F1FF33F0
:100650008CBF033C00241940A14005FA04F4013C7E
:100660002240002842EA01024FEA0212AFBF00F125
:10067000604000F00F00064BD2B2A5BF00F561400C
:10068000D2B21A5480F8002330BD00BF00ED00E064
:1006900014ED00E04209012300F01F0003FA00F00E
:1006A000014B43F82200704700E100E00138B0F14F
:1006B000807F0AD2064B074A5860F02182F8231047
:1006C0000020072298601A6070470120704700BF21
:1006D00010E000E000ED00E030B500284ED00168E9
:1006E000274B99424FF0140440D8264A0A44B2FBE3
:1006F000F4F292004264A3F207430364022380F8F9
:1007000025308468C36805690A6823432B4345691B
:100710002B4385692B43C5692B43056A22F4FF42AD
:1007200022F070022B431343B4F5804F0B6014D0BA
:10073000026C154B9A420CBF14491549436C0A6868
:1007400003F01C030F249C4022EA04020A60426862
:100750000C6802FA03F323430B6000230122C363F6
:1007600080F8243080F82520184630BD094B0B4412
:10077000B3FBF4F39B004364074BBEE7012030BD9D
:1007800007040240F8FFFDBF00000240A80002403D
:10079000A8040240F8FBFDBF00040240016C426C5B
:1007A000036870B402F01C020E681D6804249440B3
:1007B00026420ED015F0040F0BD01A6892065EBFC9
:1007C0001A6822F004021A60036B4C6073B370BCA9
:1007D000184702249440264212D015F0020F0FD081
:1007E0001A68950606D41A6822F00A021A600123D4
:1007F00080F8253000234C6080F82430C36AE5E798
:1008000008249440344211D02C070FD51C6824F0E2
:100810000E041C60012303FA02F24A60C36380F8ED
:100820002530002380F82430436BCFE770BC70473D
:100830002DE9F04F85B00B68DFF85881534A0193DA
:100840004FF00F090023019CDC4002D105B0BDE848
:10085000F08F012404FA03FA019C14EA0A0500F05F
:100860008F804C6824F0100BBBF1020F11D1DF0810
:1008700000EB870703F0070E3E6A4FEA8E0E09FA77
:100880000EFC26EA0C0C0E6906FA0EF646EA0C0679
:100890003E624FEA430C0327066807FA0CF7FF4352
:1008A00004F0030E3E400EFA0CFE0BF1FF3B4EEA45
:1008B0000606BBF1010F066011D8866806EA070B31
:1008C000CE6806FA0CFE4EEA0B068660466826EAFB
:1008D0000A0AC4F300169E4046EA0A064660C66845
:1008E00037408E6806FA0CF63743E600C76047D5F6
:1008F000D8F8606046F00106C8F86060D8F860601B
:1009000023F0030707F1804706F0010607F580375B
:10091000039603F0030E039EBE684FEA8E0E09FA9B
:100920000EFCB0F1904F26EA0C0C2BD0184EB042C2
:100930002AD006F58066B04214BF0726022606FAC2
:100940000EF646EA0C06BE601668EF4314F4803FCC
:100950000CBF3E402E431660566814F4003F0CBF97
:100960003E402E435660966814F4801F0CBF3E40F4
:100970002E439660D668A40254BF3E402E43D660F4
:10098000013360E70026DAE70126D8E700040140DA
:1009900000040048001002400AB181617047816282
:1009A00070470000024A136843F480731360704775
:1009B00000700040024B186800F4C060704700BF30
:1009C00000700040174B1A68B0F5007F02F4C06257
:1009D0001CD1B2F5007F15D01A6822F4C06242F42F
:1009E00000721A60104A116832224A430F49B2FB62
:1009F000F1F2194601325869400500D522B94B6918
:100A00005B050DD400207047013AF4E7B2F5806F22
:100A10001FBF1A6822F4C06242F480621A60F1E7D4
:100A200003207047007000400000002040420F008B
:100A300037B51E4DAB6DDA00044618D5FFF7BAFF87
:100A4000B0F5007F23D1802C29D9A02C8CBF0220A7
:100A50000120174A136823F0070303431360136848
:100A600003F00703181A18BF012003B030BDAB6DA7
:100A700043F08053AB65AB6D03F080530193019B52
:100A8000FFF798FFAB6D23F08053AB65D8E7802C60
:100A900007D808D0A4F1700358425841D9E7002084
:100AA000D7E70320D5E70220D3E700BF00100240BC
:100AB00000200240254B9A68D96812F00C0205D03C
:100AC0000C2A15D101F00301012918D11968204819
:100AD000090755BFD3F894101968C1F30321C1F376
:100AE000031150F8210082B30C2A09D0002070476E
:100AF000042A29D0082A174818BF00207047002070
:100B0000D968DA6801F00301C2F30212022902F186
:100B1000010205D0032912D0D968C1F3062103E0F0
:100B2000D9680D48C1F30621DB68B0FBF2F0C3F3CE
:100B30004163013348435B00B0FBF3F07047D96871
:100B40000448C1F30621EFE7034870470010024054
:100B50003838000800127A000024F4002DE9F74329
:100B6000054608B9012046E0A84C0368A668E76876
:100B7000DB0606F00C0607F0030772D51EB10C2E3B
:100B800051D1012F4FD12368980702D5AB69002BB3
:100B9000E8D02368286A190756BFD4F89430236830
:100BA0001B0903F0F003834228D2FFF741FF00281E
:100BB000D8D1236843F00803236023682A6A23F00E
:100BC000F003134323606368EA6923F47F4343EA35
:100BD00002236360FFF76EFFA3688D4AC3F303131C
:100BE000D35C03F01F03D8408A4B18600020FFF746
:100BF000C7FC002835D003B0BDE8F083236843F07C
:100C000008032360236823F0F00303432360636831
:100C1000EA6923F47F4343EA02236360FFF708FF96
:100C20000028D7D09EE7AB69002B3AD0236843F069
:100C300001032360FFF7D4FC804623689A0728D578
:100C4000236843F00803236023682A6A23F0F00333
:100C5000134323606368EA6923F47F4343EA022372
:100C600063602B68D8072DD42B6899076BD42B6849
:100C7000180700F1A0802B68590700F1CD802B6880
:100C8000990600F13681AB6A002B40F05C810020B0
:100C9000B1E7FFF7A5FCA0EB08000228CDD903209F
:100CA000A9E7236823F001032360FFF799FC80463E
:100CB00023689B07D5D5FFF793FCA0EB080002281B
:100CC000F6D9ECE7082E03D00C2E08D1032F06D15D
:100CD00023689A03C8D56B68002BC5D142E76B68BF
:100CE000B3F5803F10D1236843F480332360FFF7CE
:100CF00077FC804623689B03B6D4FFF771FCA0EB1A
:100D000008006428F6D9CAE7B3F5A02F04D12368F8
:100D100043F480232360E6E7226822F480322260D5
:100D2000226822F480222260002BE0D1FFF758FCD9
:100D300080462368980397D5FFF752FCA0EB080084
:100D40006428F6D9ABE7042E03D00C2E10D1022F65
:100D50000ED12368590503D5EB68002B3FF402AF91
:100D600063682A6923F0F85343EA026363607EE70D
:100D7000EB687BB1236843F480732360FFF730FC9A
:100D8000074623685A05EBD4FFF72AFCC01B02284C
:100D9000F7D984E7236823F480732360FFF720FCEE
:100DA000074623685B057FF562AFFFF719FCC01BA0
:100DB0000228F6D973E76B699BB1D4F8943043F0FD
:100DC0000103C4F89430FFF70BFC0746D4F89430C5
:100DD0009A073FF550AFFFF703FCC01B0228F5D977
:100DE0005DE7D4F8943023F00103C4F89430FFF7A2
:100DF000F7FB0746D4F894309B077FF53CAFFFF72D
:100E0000EFFBC01B0228F5D949E700BF00100240E4
:100E10001E38000800000020A36DD80029D4A36D5F
:100E200043F08053A365A36D03F080530193019BAE
:100E30004FF00108714F3B68D9051DD5AB68012BF8
:100E40002BD1D4F8903043F00103C4F89030FFF771
:100E5000C7FB41F288390746D4F890309B0742D54A
:100E6000B8F1000F3FF40BAFA36D23F08053A365DF
:100E700005E74FF00008DDE73B6843F480733B6013
:100E8000FFF7AEFB81463B68DA05D7D4FFF7A8FB36
:100E9000A0EB09000228F6D901E7052B06D1D4F80A
:100EA000903043F00403C4F89030CAE7D4F890209F
:100EB00022F00102C4F89020D4F8902022F004021D
:100EC000C4F89020002BC2D1FFF78AFB41F2883989
:100ED0000746D4F890309807C2D5FFF781FBC01BB6
:100EE0004845F6D9DBE6FFF77BFBC01B4845B3D985
:100EF000D5E66B6A9BB1D4F8983043F00103C4F88F
:100F00009830FFF76DFB0746D4F898309A073FF505
:100F1000BAAEFFF765FBC01B0228F5D9BFE6D4F8CF
:100F2000983023F00103C4F89830FFF759FB0746C7
:100F3000D4F898309B077FF5A6AEFFF751FBC01B96
:100F40000228F5D9ABE60C2E3FF40CAE022B236839
:100F500023F08073236036D1FFF742FB06462368F7
:100F600098012AD4AB6B6A6BDB0643EA0223EA6A78
:100F700013432A6B013A43EA0213EA6B5208013A1F
:100F800043EA42532A6C5208013A43EA4263E3605F
:100F9000236843F080732360E36843F08073E36069
:100FA000FFF71EFB0546236899013FF570AEFFF77A
:100FB00017FB401B0228F6D971E6FFF711FB801BD7
:100FC0000228CCD96BE623681A015EBFE36823F0E0
:100FD0000303E360E36823F0887323F48033E36062
:100FE000FFF7FEFA054623689B017FF550AEFFF739
:100FF000F7FA401B0228F6D951E600BF0070004006
:101000002DE9F0410E46044610B90120BDE8F081FB
:10101000404A136803F007038B4229D32368D9079A
:1010200031D421688A075BD43A4A136803F0070376
:101030009E425DD311F0040F374D64D10B0706D5E6
:10104000AB68226923F4605343EAC203AB60FFF745
:1010500031FDAB68314AC3F30313BDE8F041D35C03
:1010600003F01F03D8402E4B18600020FFF788BA0A
:10107000136823F007030B431360136803F007039F
:101080009942C2D1CAE76268234D032A2B681BD15B
:1010900013F0007FB9D0AB6823F003031343AB60B8
:1010A000FFF79EFA41F288380746AB68626803F0A2
:1010B0000C03B3EB820FB4D0FFF792FAC01B40458C
:1010C000F3D90320BDE8F081022A02D113F4003FD6
:1010D000E0E712B913F0020FDCE713F4806FD9E7F1
:1010E0000D4AA068936823F0F003034393609BE7E5
:1010F000136823F0070333431360136803F00703F7
:101100009E4282D196E7AB68E26823F4E063134322
:10111000AB6093E700200240001002401E38000838
:1011200000000020054B064A9B68C3F30223D35CF2
:10113000044A106803F01F03D840704700100240B3
:101140002E38000800000020054B064A9B68C3F3B8
:10115000C223D35C044A106803F01F03D8407047D1
:10116000001002402E38000800000020F8B5444B63
:10117000DA6812F0030F05460E461C46006839D0A7
:10118000DA6802F0030282424BD1002A49D0DB68C0
:101190006A68C3F302130133934242D1236823F0F8
:1011A00080632360FFF71CFA074623681A0141D4C5
:1011B000AF68002E45D0012E4FD12269286922F454
:1011C000C002400822F4FE42013842EA072242EA05
:1011D00040522261236843F080632360FFF700FAE6
:1011E000064623681B0145D52369AA691343236179
:1011F0000020F8BD022810D0032814D0012810D1F7
:101200001B689F07F5D5E3686A6823F07303013A0A
:10121000184340EA0210E060C0E71B6813F4806FD7
:10122000F1D10120F8BD1A689103ECD41B6813F4C6
:10123000802FF5E7FFF7D4F9C01B0228B5D90320AA
:10124000F8BD2269E96822F07842C90641EA07231D
:1012500022F4FE4213432361BCE72369686923F04B
:10126000C063400823F4FE43013843EA072343EAFE
:101270004063F0E7FFF7B4F9801B0228B1D9DEE73D
:10128000001002402DE9F743056815F40065044697
:101290000ED0C16BB1F5000F53D0B1F5400F55D052
:1012A00000295ED10430FFF761FF054600284DD0CC
:1012B00023689E0363D5934EB36DD80040F1168129
:1012C0000027DFF84482D8F8003043F48073C8F870
:1012D0000030FFF785F98146D8F80030D90542D5AE
:1012E000002D47D1D6F8903013F4407314D0226DFE
:1012F000934211D0D6F89030D6F8902042F4803244
:10130000C6F89020D6F8902023F4407322F480325F
:10131000C6F89020C6F89030DA0709D5FFF760F9D3
:1013200041F288398046D6F890309B0740F1C08062
:10133000D6F89030226D23F440731343C6F89030F2
:1013400018E0704AD36843F48033D3606D4AE16B90
:10135000D2F8883023F440030B43C2F888300025CC
:10136000A6E70125A4E7FFF73BF9A0EB0900022857
:10137000B2D903251FB1B36D23F08053B365236841
:10138000DF0708D55F49206AD1F8882022F00302E0
:101390000243C1F888209E0708D55A49606AD1F8EF
:1013A000882022F00C020243C1F88820980608D554
:1013B0005449A06AD1F8882022F440620243C1F85F
:1013C0008820990508D54F49606BD1F8882022F410
:1013D00040220243C1F888205A0508D54949A06B2C
:1013E000D1F8882022F440120243C1F888205F0619
:1013F00008D54449E06AD1F8882022F440520243DB
:10140000C1F88820DE0508D53E49206BD1F8882038
:1014100022F440320243C1F8882098040FD5394A9B
:10142000216CD2F8883023F040630B43B1F1006F98
:10143000C2F8883044D1D36843F48013D360236862
:1014400059030FD52F4A616CD2F8883023F04063DE
:101450000B43B1F1006FC2F888303CD1D36843F43C
:101460008013D36023685A0412D52649A26CD1F8A0
:10147000883023F040531343B2F1805FC1F88830C5
:1014800006D10221201DFFF771FE002818BF054676
:1014900023681B0408D51B4AE16CD2F8883023F07E
:1014A00080430B43C2F88830284603B0BDE8F08380
:1014B000FFF796F8A0EB080048457FF634AF58E7F1
:1014C000B1F1806FBBD10121201DFFF74FFE002835
:1014D00018BF0546B3E7B1F1806FC3D10121201DCC
:1014E000FFF744FE002818BF0546BBE7B36D43F085
:1014F0008053B365B36D03F080530193019B0127C3
:10150000DFE600BF0010024000700040024A13688E
:1015100043F004031360704700100240036A23F095
:1015200001030362036A70B5456882690C6822F49E
:10153000803222F0730222438C6823F0020323439B
:10154000124CA04206D0124EB04203D006F580667F
:10155000B04214D1CE6823F008033343A04223F0F5
:10156000040306D00A4CA04203D004F58064A042D4
:1015700005D14C698E6925F4407534432543456097
:1015800082614A684263036270BD00BF002C014063
:1015900000400140036A23F480730362036A4268D7
:1015A00070B5C4690D6824F4803424F073042C43AE
:1015B0008D6823F4007343EA05230F4DA8420ED132
:1015C000CD6823F4006343EA052323F480634D6967
:1015D0008E6922F44052354342EA051205E0074D78
:1015E000A842F4D0064DA842F1D042604A68C461D6
:1015F000C263036270BD00BF002C01400040014087
:1016000000440140036A23F480530362026A30B548
:101610004468C3690D6823F0807323F4E64343EA0A
:1016200005238D6822F4005242EA05320A4DA84291
:1016300007D005F5A055A84203D005F58065A8425E
:1016400004D14D6924F4804444EA85144460C361A4
:101650004B680364026230BD002C0140036A23F42E
:1016600080330362026A30B54468436D0D6823F429
:10167000803323F070032B438D6822F4003242EA5A
:1016800005420B4DA84207D005F5A055A84203D04E
:1016900005F58065A84204D14D6924F4803444EAFC
:1016A0000524446043654B688365026230BD00BF1A
:1016B000002C0140036A23F480130362026A30B5F0
:1016C0004468436D0D6823F0807323F4E04343EADC
:1016D00005238D6822F4001242EA05520A4DA84201
:1016E00007D005F5A055A84203D005F58065A842AE
:1016F00004D14D6924F4802444EA85244460436580
:101700004B68C365026230BD002C01401A4A036871
:10171000904210B502D0B0F1804F09D14C6823F04F
:101720007003904243EA040309D0B0F1804F06D021
:10173000124A904203D002F58062904203D1CA68F7
:1017400023F4407313434A6923F080031343036077
:101750008B68C3620B688362074B984207D003F51E
:10176000A053984203D003F58063984201D10B69DE
:1017700003630123436110BD002C01400040014080
:1017800010B50446A0B190F83D3003F0FF021BB93C
:1017900080F83C2000F0FAFE022384F83D302068F7
:1017A000211DFFF7B3FF012384F83D30002010BD59
:1017B000012010BD036A23F010030362036A42682C
:1017C00070B584690D6824F0807424F4E64444EA1A
:1017D00005248D6823F0200343EA05130E4DA8422B
:1017E0000ED1CD6823F0800343EA051323F04003B4
:1017F0004D698E6922F44062354342EA850205E074
:10180000064DA842F4D0064DA842F1D042604A6885
:1018100084618263036270BD002C0140004001407E
:101820000044014038B590F83C30012B04464FF09D
:10183000020010D00123082A84F83C3084F83D00CF
:1018400043D009D8FAB1042A2ED00123002084F80D
:101850003D3084F83C0038BD102A47D0142A56D0B9
:101860000C2AF2D12068FFF7CDFE23680969DA69F6
:1018700042F40062DA61DA6922F48062DA61DA69DC
:1018800042EA012230E02068FFF748FE2368096938
:101890009A6942F008029A619A6922F004029A61F8
:1018A0009A690A439A61D0E72068FFF783FF2368AB
:1018B00009699A6942F400629A619A6922F4806225
:1018C0009A619A6942EA0122ECE72068FFF762FE1A
:1018D00023680969DA6942F00802DA61DA6922F0FC
:1018E0000402DA61DA690A43DA61AEE72068FFF7D9
:1018F000B5FE236809695A6D42F008025A655A6DAF
:1019000022F004025A655A6D0A435A659DE7206821
:10191000FFF7D0FE236809695A6D42F400625A65E8
:101920005A6D22F480625A655A6D42EA0122ECE750
:10193000036A01F01F0110B501248C4023EA04035F
:101940000362036A8A401A43026210BD10B504465E
:1019500001220068FFF7ECFF2368104A934217D07A
:1019600002F5A052934213D002F5806293420FD049
:1019700099680B480140062908D09A680240B2F5E0
:10198000803F03D01A6842F001021A60002010BDA7
:101990005A6C42F400425A64EAE700BF002C01404E
:1019A0000700010090F83C30012B30B54FF00203E6
:1019B0001BD002680E4D80F83D3053689468AA42EF
:1019C00002BF4D6823F470032B430D68896823F030
:1019D00070032B4324F08004536021430123916062
:1019E00080F83D30002380F83C30184630BD00BF01
:1019F000002C014090F83C30012B10B534D0CB685E
:101A00008A681A4C23F4407313434A6823F48063B2
:101A100013430A6823F4006313430A6923F48053D1
:101A200013434A6923F4005313438A6A23F480431F
:101A300013438A6923F4702343EA02430268A242F3
:101A40000CD14C6A23F4700343EA0453CC69096A4D
:101A500023F08073234323F000730B43536400236C
:101A600080F83C30184610BD022010BD002C01400B
:101A70000268C169F8B504468368006915680343C4
:101A80006069034382480B43284003431360536853
:101A9000E06823F44053034353607E4BA0699A42AD
:101AA0001CBF236A1843936823F430630343936095
:101AB000794B9A4214D103F55843784AD3F88830C9
:101AC00003F00303B1F5004FD35C40F0AA80082B6C
:101AD00020D8DFE803F0778F921F9B1F1F1F9E0007
:101AE0006F4B9A4207D103F5E6336E4AD3F888303C
:101AF00003F00C03E6E7674B9A4240F0C28003F51F
:101B0000C833D3F8885005F44065B5F5806F2AD006
:101B100006D815B301220023236663661046F8BD7C
:101B2000B5F5006F06D0B5F5406FF3D14FF4004026
:101B3000082501E05C480225626802EB420383420B
:101B4000E8D8B0EB023FE5D8082D38D8DFE805F03B
:101B50000F3726372E3737373100FFF7E3FA0028E3
:101B6000EAD10246D7E7FEF7A5FF0425F7E7FFF71E
:101B7000D9FA62684FF4807156080027E1FB0067CC
:101B8000002330463946FEF773FB0022474BA0F591
:101B900040719942BED82368D860BCE744485508D4
:101BA00000230021401941F10001ECE7FEF782FF1C
:101BB000DFE750080021002310F50000F3E70122C1
:101BC0000020E3E7FFF7AEFA61684A0802EB400342
:101BD000B3FBF1F39BB20022A3F110004FF6EF71BB
:101BE000884297D823F00F012068C3F342030B43C8
:101BF000C36090E7FFF7A8FAE6E76068430803F1DF
:101C0000F47303F59043B3FBF0F3E3E7FEF752FF01
:101C1000DAE76068430803F58033F4E70122002324
:101C2000DAE7082B30D8DFE803F005181B2F242F44
:101C30002F2F2700FFF776FA626800EB5203B3FB01
:101C4000F2F39BB20022A3F110004FF6EF7188422D
:101C50003FF660AF2168CB605DE7FFF775FAEBE711
:101C60006068430803F5740303F51053B3FBF0F306
:101C7000E7E7FEF71FFFDFE76068430803F500436F
:101C8000F4E7B1F5004FC9D001220023DBE700BF24
:101C9000F369FFEF0080004000380140B0370008D2
:101CA00000440040B43700080024F400FFFC0F009B
:101CB000000024F4436ADA0710B506D50168846A87
:101CC0004A6822F4003222434A609C0706D5016824
:101CD000C46A4A6822F4803222434A60590706D512
:101CE0000168046B4A6822F4802222434A601A0782
:101CF00006D50168446B4A6822F4004222434A60D8
:101D0000DC0606D50168846B8A6822F4805222437F
:101D10008A60990606D50168C46B8A6822F400526D
:101D200022438A605A060FD50168046C4A6822F47F
:101D300080122243B4F5801F4A6005D14A68446C82
:101D400022F4C00222434A601B0606D50268816C59
:101D5000536823F400230B43536010BD2DE9F04179
:101D6000069D04460F46164698462168CA6937EA1A
:101D700002030CBF01220022B24202D00020BDE8C3
:101D8000F0816B1CF2D09DB923681A6822F4D072DE
:101D90001A609A6822F001029A60202384F8713058
:101DA00084F87230002384F870300320BDE8F0819D
:101DB000FEF716FCA0EB08008542D6D2E4E72DE939
:101DC000F3411F4690F87130202B04460D46904693
:101DD0004AD1002946D0002A44D090F87030012B17
:101DE00042D0012380F8703000234367212380F81C
:101DF0007130FEF7F5FBA4F850800646A4F8528037
:101E0000B4F85220009792B2334652B9402120468E
:101E1000FFF7A4FF58B9202384F8713084F87000CC
:101E200006E0002280212046FFF798FF18B103202A
:101E300002B0BDE8F081A3682268B3F5805F0DD1E0
:101E400023695BB935F8023BC3F308031385B4F883
:101E50005230013B9BB2A4F85230D1E72B78138566
:101E60000135F4E70120E3E70220E1E72DE9F34142
:101E7000984690F87230202B04460D46164660D1E5
:101E800000295CD0002A5AD090F87030012B58D02D
:101E9000012380F8703000234367222380F87230DA
:101EA000FEF79EFBA368A4F85860B3F5805F074671
:101EB000A4F85A6015D123698BB940F2FF13A4F836
:101EC0005C30B4F85C60B4F85A0080B2B8B9202332
:101ED00084F8723084F8700002B0BDE8F081FF230E
:101EE000EDE723B92369002BF9D07F23E7E7B3F1AE
:101EF000805FE6D12369002BF7D03F23DFE7CDF8E1
:101F000000803B46002220212046FFF727FFD0B962
:101F1000A368B3F5805F23680CD1226952B99B8C0A
:101F2000334025F8023BB4F85A30013B9BB2A4F889
:101F30005A30C8E79B8C33402B700135F3E7012002
:101F4000CAE70220C8E70320C6E773B504460026A7
:101F50004667FEF745FB23681B681A07054617D43A
:101F600023681B685B070AD56FF07E43009300224D
:101F70002B464FF480012046FFF7F0FEA0B9202346
:101F8000002084F8713084F8700084F872300CE01E
:101F90006FF07E430093324603464FF40011204613
:101FA000FFF7DCFE0028DBD0032002B070BD10B5C7
:101FB000044660B390F8713003F0FF021BB980F85B
:101FC000702000F01FFB2268242384F8713013680E
:101FD00023F0010313602046FFF74AFD012816D0C5
:101FE000636A13B12046FFF765FE23685A6822F43E
:101FF00090425A609A6822F02A029A601A6842F067
:10200000010220461A60BDE81040FFF79EBF012084
:1020100010BD000038B50F4D044600224FF480512A
:102020004FF09040FEF7B8FC012210212846FEF741
:10203000B3FC002280212846FEF7AEFC01220221DB
:102040002846FEF7A9FC044B1B68E4B25C639C6362
:1020500038BD00BF000400489401002038B50F4D82
:10206000044601224FF480514FF09040FEF794FC5B
:10207000002210212846FEF78FFC012280212846ED
:10208000FEF78AFC002202212846FEF785FC044B5D
:102090001B68E4B25C639C6338BD00BF0004004869
:1020A0009401002038B5134D044601224FF48051AD
:1020B0004FF09040FEF770FC284600221021FEF7FA
:1020C0006BFC284600228021FEF766FC28460A4D5C
:1020D00001220221FEF760FC2B68E4B25C634FF43E
:1020E00096709C63FEF782FA2B6800225A639A630B
:1020F00038BD00BF000400489401002038B5134DDE
:10210000044600224FF480514FF09040FEF744FC0B
:10211000284601221021FEF73FFC2846012280219B
:10212000FEF73AFC28460A4D00220221FEF734FC55
:102130002B68E4B25C634FF496709C63FEF756FA2A
:102140002B6800225A639A6338BD00BF0004004820
:102150009401002070B5ACB014244422002106A8DC
:1021600000F0A0FB2246002101A800F09BFB00210B
:10217000542217A800F096FBFEF714FC1A4AD2F876
:10218000903023F01803C2F890306023102201250C
:1021900006940E9300240223139206A80722149299
:1021A000109315931693032608950C950D9411958D
:1021B0001295FEF7D3FC0F23294601A8019302963E
:1021C000039404940594FEF71BFF17A817961F9419
:1021D0002094FFF757F84FF40070FEF7F3FBFFF77A
:1021E00095F92CB070BD00BF001002402DE9F043FE
:1021F000AE4D9BB0FEF7DCF9FFF7ACFF14220021D7
:102200000FA800F04FFBEB6CA94843F00403EB640C
:10221000EB6C03F004030293029BEB6C43F00103AD
:10222000EB64EB6C03F001030393039BEB6C43F053
:102230000203EB64EB6C03F002030493002292218F
:10224000049BFEF7A9FB00224FF480514FF0904011
:102250000024FEF7A1FB012692230FA994480F93B7
:10226000109611941294FEF7E3FA4FF480530FA9DD
:102270004FF090400F93109611941294FEF7D8FAF5
:10228000AB6C3343AB64AB6C8A4D33402246214682
:1022900001930F20019B884EFEF7C8F90F20FEF72F
:1022A000F9F921461C2208A805940694079400F029
:1022B000F9FA2C2221460FA800F0F4FA7F4BAC600B
:1022C0004FF0FF08284685E81800C5F80C802C61FF
:1022D0006C61AC61FFF754FA05A928460594069491
:1022E0000794FFF75FFB6023224608A9284608935E
:1022F00009940A940B940C940D940E94FFF792FA9F
:10230000042208A92846FFF78DFA4FF400530FA9BD
:10231000149328464FF0007317930F941094119460
:10232000129413941594169418941994FFF762FB61
:10233000284600F03FF9624BB4604FF416590C2761
:10234000304686E80802F46034617761B461F46174
:1023500034627462FFF72BFE5A485B4B47615B4F58
:10236000846080E80802C46004618461C46104621E
:102370004462FFF71CFE21462846C7F80080FFF79D
:10238000E5FA04212846FFF7E1FA5148514CDFF8FD
:102390006C9100F003FBB8464FF4FA731E224D49CE
:1023A0003046FFF763FD0028F6D02378662B18D15E
:1023B00063786F2BF0D1A378722BEDD14649474853
:1023C00000F0F4FA4FF4FA73082244493046FFF75C
:1023D000F6FCD8F80000FFF71DFE414800F06AFA4D
:1023E000DAE7622B19D16378612BD5D1A378632BFF
:1023F000D2D1E3786B2BCFD13A49384800F0D6FAE6
:102400004FF4FA73092235493046FFF7D8FCD8F863
:102410000000FFF723FE3448E0E76C2B1FD1637800
:10242000652BB9D1A378662BB6D1E378742BB3D1E1
:102430002E492A4800F0BAFA4FF4FA7305222749C8
:102440003046FFF7BCFCD8F80000FFF757FE00232A
:102450001A46E25401331E2BFBD12548BEE7722BEE
:102460004ED16378692B97D1A378672B94D1E37809
:10247000682B91D12379742B8ED11E49174800F017
:1024800095FA4FF4FA73062214493046FFF797FC89
:10249000D8F80000FFF706FE174800F00BFA0023FB
:1024A0001A46E25401331E2BFBD175E7001002409F
:1024B00000040048940100201C010020002C014071
:1024C00000380140D4010020004400408400002076
:1024D000C137000898000020CC370008B600002063
:1024E000D5370008E0370008EA370008F53700085C
:1024F000FB370008023800080938000811380008C6
:10250000732B7FF449AF6378742B7FF445AFA378C6
:102510006F2B7FF441AFE378702B7FF43DAF4946DA
:102520000B4800F043FA05224FF4FA73084930468D
:10253000FFF745FC2B68074800275F639F6300F0A7
:10254000B9F93B463A46E25401331E2BFBD123E74F
:10255000B600002017380008704700000A4B1A6EBA
:1025600042F001021A661A6E82B002F00102009275
:10257000009A9A6D42F080529A659B6D03F08053E9
:102580000193019B02B07047001002400268084BA3
:102590009A4282B00AD103F564431A6E42F4006293
:1025A0001A661B6E03F400630193019B02B070472F
:1025B000002C014010B5044686B01422002101A869
:1025C00000F070F922680E4B9A4216D103F564436D
:1025D00001A9DA6C42F00102DA64DB6C03F001035A
:1025E0000093009B4FF440730193022302934FF03A
:1025F000904001230593FEF71BF906B010BD00BF04
:10260000002C01402DE9F04314228BB00646002136
:102610000DEB020000F046F93368444A934253D16F
:10262000434B1A6E42F480421A661A6E02F48042DC
:102630000092009ADA6C42F00102DA64DA6C02F07D
:1026400001020192019ADA6C42F00202DA64DB6C58
:1026500003F002030227072402934FF480684FF02F
:10266000030905A94FF090400025029B0994CDF87D
:1026700014800697CDF82090FEF7DAF840232D4815
:10268000059305A9099406972B4C0795CDF8209042
:10269000FEF7CEF8294BA56084E8880080232361EB
:1026A0004FF48073636120462023E560C4F81880EE
:1026B000E3612562FEF710F808B1FFF74DFFF466FD
:1026C000A6620BB0BDE8F0831D4A9342F9D1184BC6
:1026D0009A6D42F400329A659A6D02F400320392C8
:1026E000039ADA6C42F00102DA64DB6C03F0010356
:1026F0000493049B0423032405930225072305A9BF
:102700004FF09040099306950894FEF791F84FF426
:102710000043059305A900234FF0904006950793C9
:1027200008940994FEF784F8CBE700BF0038014015
:102730000010024000040048D4000020580002406D
:10274000004400407047FEE7FEE7FEE7FEE7704703
:1027500070477047FDF73CBF0148FEF71FB800BF48
:10276000D400002008B501224FF0FF330448FFF7E2
:102770007DFB00280CBF01204FF0FF3008BD00BFDB
:10278000D401002010B54FF0FF331446054892B233
:10279000FFF715FB0138C0B2012801D8FFF7DCFEB6
:1027A000204610BDD40100204FF0FF3070474FF499
:1027B00000534B6000207047012070470020704795
:1027C0000F49D1F8883043F47003C1F888300D4BBD
:1027D0001A68002042F001021A6098601A6822F01C
:1027E000A85222F410221A604FF48052DA601A685C
:1027F00022F480221A6098614FF000638B6070476A
:1028000000ED00E000100240DFF834D0002103E0CA
:102810000C4B5B58435004310B480C4B42189A4206
:10282000F6D30B4A02E0002342F8043B094B9A42DC
:10283000F9D3FFF7C5FF00F011F8FFF7D7FCFEE76B
:10284000000001201039000800000020680000206E
:102850006800002050020020FEE7000070B50D4E19
:102860000D4CA41BA4100025A54209D10B4E0C4C05
:1028700000F092FFA41BA4100025A54205D170BD55
:1028800056F8253098470135EEE756F82530984739
:102890000135F2E70839000808390008083900084E
:1028A0000C39000802440346934200D1704703F8F4
:1028B000011BF9E70FB40A4B13B51C6824B1A369D7
:1028C00013B9204600F02CFA05AB049AA1680193D5
:1028D000204600F0E9FB02B0BDE8104004B07047AC
:1028E0000400002070B50E46054618B183690BB987
:1028F00000F016FAAB69AC6813B9284600F010FA7C
:10290000234B9C4217D16C68A3891B071DD52369F3
:10291000DBB1013EA36816F8011F013BA360E9B9D2
:10292000002B2EDA22460A21284600F047F8013013
:1029300011D00A2070BD174B9C4201D1AC68E3E76F
:10294000154B9C4208BFEC68DEE72146284600F0A4
:1029500087F80028DDD04FF0FF3070BD002B04DA7F
:10296000A269934206DB0A2904D023685A1C22601C
:102970001970CFE72246284600F020F80130C9D16F
:10298000E9E723680A205A1C2260187070BD00BF56
:102990008C380008AC3800086C380008024B01463F
:1029A0001868FFF79FBF00BF04000020034611F81E
:1029B000012B03F8012B002AF9D17047F8B50E4618
:1029C0001446054618B183690BB900F0A9F9214BEB
:1029D0009C422AD16C68A369A360A3891A072ED5EB
:1029E000236963B323692068C01A6369F6B2984209
:1029F000374604DB2146284600F028F928BBA368A7
:102A0000013BA36023685A1C22601E706369013079
:102A1000984204D0A389DB0719D50A2E17D1214685
:102A2000284600F013F990B10FE00B4B9C4201D106
:102A3000AC68D0E7094B9C4208BFEC68CBE7214665
:102A4000284600F00DF80028CCD04FF0FF3738466C
:102A5000F8BD00BF8C380008AC3800086C3800089E
:102A6000324B70B51D6806460C4625B1AB6913B9EB
:102A7000284600F055F92E4B9C420FD16C68B4F9F2
:102A80000C309AB215072CD4D00611D4092232602A
:102A900043F04003A3814FF0FF3070BD254B9C42B3
:102AA00001D1AC68EBE7244B9C4208BFEC68E6E739
:102AB000510712D5616B41B104F14403994202D030
:102AC000304600F01BFA00236363A38923F024033C
:102AD000A3810023636023692360A38943F0080373
:102AE000A38123694BB9A38903F42073B3F5007F55
:102AF00003D02146304600F0C1F9A28912F001034B
:102B00000CD00023A36063695B42A361236953B9BE
:102B1000B4F90C3013F08000BAD170BD920758BFE1
:102B20006369A360F2E70020F7E700BF040000201C
:102B30008C380008AC3800086C3800088A892DE908
:102B4000F041054610070C465AD44B68002B05DCB3
:102B50000B6C002B02DC0020BDE8F081E66A002E41
:102B6000F9D0002312F480522F682B6033D0606DAF
:102B7000A3895A0705D56368C01A636B0BB1236C30
:102B8000C01A00230246E66A216A2846B047431C61
:102B9000A38906D129681D294BD82B4ACA40D607DC
:102BA00047D500226260D9042269226004D5421C04
:102BB00001D12B6803B96065616B2F600029CAD011
:102BC00004F14403994202D0284600F097F900200E
:102BD0006063BDE8F081216A01232846B047411CAB
:102BE000C6D12B68002BC3D01D2B01D0162B01D1D1
:102BF0002F60B0E7A38943F04003A381BDE8F081D3
:102C00000F69002FA7D093070E6808BF4B690F60AC
:102C100018BF0023A6EB07088B60B8F1000F9ADD00
:102C200043463A46216AA66A2846B047002807DC90
:102C3000A38943F04003A3814FF0FF30BDE8F0814A
:102C40000744A8EB0008E8E70100402038B50B690D
:102C500005460C46DBB118B183690BB900F060F88A
:102C60000C4B9C4209D16C68B4F90C307BB1214605
:102C70002846BDE83840FFF761BF074B9C4201D1B1
:102C8000AC68F1E7054B9C4208BFEC68ECE700201C
:102C900038BD00BF8C380008AC3800086C3800081C
:102CA000014900F0A9B800BF4D2C0008002310B561
:102CB000044603604360836081814366C28103618F
:102CC00043618361194608225C30FFF7EBFD054B39
:102CD0006362054BA362054BE362054B24622363E9
:102CE00010BD00BF21360008433600087B360008BF
:102CF0009F36000870B54A1E682555430E4605F1FB
:102D0000740100F049F9044640B1002180E8420016
:102D10000C30A06005F16802FFF7C4FD204670BDCD
:102D2000836910B5044633BB8364C3640365124BE7
:102D3000124A1B688262984204BF0123836100F03B
:102D40001FF86060204600F01BF8A060204600F0ED
:102D500017F80022E06004216068FFF7A7FF012256
:102D60000921A068FFF7A2FF02221221E068FFF705
:102D70009DFF0123A36110BD68380008A12C000845
:102D8000F8B51C4B1E68B369074613B93046FFF708
:102D9000C7FF4836B4687368013B03D5336833B165
:102DA0003668F7E7B4F90C506DB16834F4E70421E4
:102DB0003846FFF79FFF30600028F1D10C233B60BD
:102DC00004462046F8BD4FF6FF73E3810123A3813B
:102DD00065662560A560656025616561A56108225D
:102DE000294604F15C00FFF75DFD6563A563A564FA
:102DF000E564E6E7683800082DE9F843804689462F
:102E000000F14804002614B93046BDE8F883A568EF
:102E10006768013F01D52468F5E7AB89012B07D925
:102E2000B5F90E30013303D029464046C847064362
:102E30006835EEE770B50E46B1F90E10002990B076
:102E400014461D4607DA00232B60B3891A0610D4F6
:102E50004FF480630EE001AA00F048FC0028F2DB8A
:102E6000029A02F47042A2F500535A425A412A6073
:102E7000EEE740230020236010B070BD8B8973B54E
:102E80009D0706460C4607D504F1470323602361DE
:102E90000123636102B070BD01AB6A46FFF7CAFF50
:102EA00000990546304600F077F848B9B4F90C307F
:102EB0009A05EFD423F0030343F00203A381E3E771
:102EC0000D4BB362A389206043F08003A381009B74
:102ED0006361019B20615BB1B4F90E10304600F0D4
:102EE00017FC28B1A38923F0030343F00103A38156
:102EF000A3891D43A581CDE7A12C000838B505465F
:102F0000002945D051F8043C0C1F002BB8BFE41831
:102F100000F020FC1F4A1368104633B96360146048
:102F20002846BDE8384000F016BCA3420CD9216801
:102F30006218934204BF1A685B68636004BF52184A
:102F400022600460ECE713465A680AB1A242FAD93B
:102F500019685818A0420BD12068014458188242C1
:102F60001960DDD1106852685A6001441960D7E7D2
:102F700002D90C232B60D3E7206821188A4204BFB2
:102F800011685268626004BF091821605C60C7E77D
:102F900038BD00BF8800002070B5CD1C25F00305AA
:102FA00008350C2D38BF0C25002D064601DBA94243
:102FB00003D90C233360002070BD00F0CBFB234A03
:102FC0001468214691B9224C23681BB9304600F0A1
:102FD00017FB20602946304600F012FB431C26D127
:102FE0000C233360304600F0B6FBE4E70B685B1B54
:102FF0001AD40B2B0FD90B60CD50CC18304600F0F3
:10300000AAFB04F10B00231D20F00700C31A1BD0FC
:103010005A42E25070BD8C420DBF63684B686360DA
:10302000136018BF0C46E9E70C464968CAE7C41CA0
:1030300024F00304A04205D0211A304600F0E0FA43
:103040000130CDD02560D9E770BD00BF88000020D9
:103050008C0000209368013B002B10B4936009DAC8
:103060009469A34202DBCBB20A2B03D15DF8044B77
:10307000FFF7A4BC1368581C10601970C8B25DF843
:10308000044B7047F8B506460F461446D518AC42B7
:1030900001D1002007E03A4614F8011B3046FFF743
:1030A000D9FF431CF3D1F8BD2DE9F04F9DB00C467C
:1030B00017460393064618B183690BB9FFF730FE34
:1030C0007C4B9C4257D17468A38918075DD523694E
:1030D000002B5AD00023099320238DF82930302368
:1030E0008DF82A304FF0010BB846454615F8013BE4
:1030F000002B55D1B8EB070A0BD053463A46214670
:103100003046FFF7BFFF013000F0C480099B5344F5
:10311000099398F80030002B00F0BC8000234FF09A
:10312000FF3204930793059206938DF853301A9358
:10313000052229786048FDF74BF805F10108049B4A
:10314000002831D1D90644BF20228DF853201A0718
:1031500044BF2B228DF853202A782A2A2CD0079A94
:1031600000210A20A846013598F80030303B092B91
:103170006DD971B326E0514B9C4201D1B468A3E7ED
:103180004F4B9C4208BFF4689EE721463046FFF74C
:1031900067FC00289ED04FF0FF301DB0BDE8F08FD7
:1031A000252BA7D0A846A0E7434A801A0BFA00F0C7
:1031B000184304904546BBE7039A111D126803911A
:1031C000002A01DB079204E0524243F00203079217
:1031D000049398F800302E2B10D198F801302A2B48
:1031E00008F1010137D1039B1A1D1B680392002BC4
:1031F000B8BF4FF0FF3308F102080593314D98F83E
:10320000001003222846FCF7E3FF40B14023401B97
:1032100003FA00F0049B0343049308F1010898F8B3
:10322000001029488DF82810062208F10107FCF744
:10323000CFFF002834D0254B03BB039B073323F07B
:10324000070308330393099B4B4409934CE700FBA6
:103250000232012186E70023059318460A25884695
:10326000013198F80020303A092A03D9002BC5D043
:103270000590C3E705FB00200123F0E703AB0093B3
:103280002246134B04A93046AFF30080B0F1FF3F54
:103290008146D8D1A3895B063FF57DAF09987CE7CD
:1032A00003AB009322460A4B04A9304600F088F88D
:1032B000ECE700BF8C380008CC380008AC380008B8
:1032C0006C380008D2380008D6380008000000002A
:1032D000853000082DE9F04791461F468A680B6942
:1032E000DDF820809342B8BF1346C9F8003091F84A
:1032F000432006460C4612B10133C9F8003023685A
:10330000990642BFD9F800300233C9F80030256869
:1033100015F0060507D104F1190AE368D9F8002071
:103320009B1A9D4229DB94F843302268003318BF72
:10333000012392062ED404F1430239463046C04799
:10334000013021D02368E568D9F8002003F0060396
:10335000042B08BFAD1AA36822690CBF25EAE575E6
:1033600000259342C4BF9B1AED184FF000091A3490
:103370004D451BD10020BDE8F08701235246394658
:103380003046C047013003D14FF0FF30BDE8F08731
:103390000135C2E7E1185A1C302081F8430022446D
:1033A00094F8451082F843100233C4E70123224603
:1033B00039463046C0470130E6D009F10109D7E768
:1033C0002DE9F04317460A7E85B06E2A98460646D8
:1033D0000C460C9B01F1430E00F0BC801AD8632A06
:1033E0002ED00AD8002A00F0C880582A00F08A801F
:1033F00004F1420584F842202AE0642A01D0692AB7
:10340000F6D121681A6811F0800F23D0111D1960C0
:10341000136827E0732A00F0B48008D86F2A2AD0F6
:10342000702AE5D10A6842F020020A6003E0752A9A
:1034300021D0782ADCD1782284F845206E4964E0D6
:103440001A6801F14205111D1960136884F84230B1
:103450000123A3E011F0400F02F104011960D7D05D
:10346000B2F90030002B03DA2D225B4284F84320AE
:1034700062490A2217E02068196810F0800F03D013
:10348000081D18600B6806E010F0400F01F1040001
:103490001860F7D00B8859496F2A14BF0A220822F6
:1034A000002084F843006568A560002DC0F29C8070
:1034B000206820F004002060002B3FD1002D40F058
:1034C00095807546082A0BD12368DA0708D5236949
:1034D00062689A42DEBF302305F8013C05F1FF35F2
:1034E000AEEB05032361CDF800803B4603AA2146DD
:1034F0003046FFF7EFFE013055D14FF0FF3005B0F9
:10350000BDE8F08381F845203C492268186812F034
:10351000800F00F104051D6001D0036802E055062C
:10352000FBD50388D00744BF42F0200222601BB9BC
:10353000226822F0200222601022B1E77546B3FB18
:10354000F2F002FB1033CB5C05F8013D0346002886
:10355000F5D1B7E708681A68496910F0800F04D000
:10356000101D18601368196007E010F0400F02F199
:10357000040018601368F6D0198000232361754693
:10358000B1E71A68111D19601568626800212846A4
:10359000FCF71EFE08B1401B6060636823610023D6
:1035A00084F843309FE723692A4639463046C047AE
:1035B0000130A2D023689B0707D5002504F1190923
:1035C000E368039A9B1A9D4205DBE068039B9842DF
:1035D000B8BF184693E701234A4639463046C047EC
:1035E00001308AD00135EBE7002BA7D10B7884F8A6
:1035F000423004F1420565E7EE380008DD38000886
:1036000038B5064C002305460846236000F0B6F89E
:10361000431C02D1236803B12B6038BD4C0200204B
:1036200010B50C46B1F90E1000F096F80028ABBFAB
:10363000636DA3891B1823F48053ACBF6365A3811A
:1036400010BD2DE9F0411F468B89DB0505460C4670
:10365000164605D502230022B1F90E1000F068F8D5
:10366000A389B4F90E1023F48053A38132463B465C
:103670002846BDE8F04100F017B810B50C46B1F986
:103680000E1000F055F8431CA38915BF606523F4A4
:10369000805343F48053A38118BFA38110BDB1F9B7
:1036A0000E1000F013B8000038B5074C0546084668
:1036B0001146002222601A46FFF764F8431C02D12B
:1036C000236803B12B6038BD4C02002038B5064C8E
:1036D0000023054608462360FFF766F8431C02D125
:1036E000236803B12B6038BD4C02002038B5074C6D
:1036F00000230546084611462360FFF758F8431C8F
:1037000002D1236803B12B6038BD00BF4C020020FA
:1037100038B5064C0023054608462360FFF74CF8F1
:10372000431C02D1236803B12B6038BD4C0200203A
:1037300038B5074C054608461146002222601A4655
:10374000FFF73CF8431C02D1236803B12B6038BD5E
:103750004C0200207047704738B5074C05460846B4
:103760001146002222601A46FEF7FCFF431C02D1DC
:10377000236803B12B6038BD4C020020044B19684C
:10378000024609B903491960186802441A60704773
:103790009000002050020020F8B500BFF8BC08BC23
:1037A0009E467047F8B500BFF8BC08BC9E467047FF
:1037B0000104020800101010041010100210101064
:1037C000084254205465737421200D00466F7277AF
:1037D0006172640A00466F7277617264200A0D009C
:1037E0004261636B776172640A004261636B776167
:1037F00072640A0D004C6566740A004C6566740AB2
:103800000D0052696768740A0052696768740A0D8E
:103810000053746F700A0053746F700A0D0000003B
:103820000000000000000102030406070809000070
:103830000000010203040000A0860100400D030007
:10384000801A060000350C0040420F0080841E00E4
:1038500000093D0000127A000024F40000366E01D9
:103860000048E801006CDC020800002000000000B5
:103870000000000000000000000000000000000048
:103880000000000000000000000000000000000038
:103890000000000000000000000000000000000028
:1038A0000000000000000000000000000000000018
:1038B0000000000000000000000000000000000008
:1038C000000000000000000000000000232D302B4D
:1038D0002000686C4C006566674546470030313211
:1038E0003334353637383941424344454600303168
:1038F00032333435363738396162636465660000C7
:08390000A0C9FF7F01000000D7
:04390800B5010008FD
:04390C00910100081D
:1039100000093D0008000020000000008C3800086D
:10392000AC3800086C3800080000000000000000FF
:103930000000000000000000000000000000000087
:103940000000000000000000000000000000000077
:103950000000000000000000000000000000000067
:103960000000000000000000000000000000000057
:0839700000000000000000004F
:0400000508002809BE
:00000001FF
